{
  "contractName": "Prediction",
  "abi": [
    {
      "constant": true,
      "inputs": [],
      "name": "researcherAddress",
      "outputs": [
        {
          "name": "",
          "type": "address"
        }
      ],
      "payable": false,
      "stateMutability": "view",
      "type": "function"
    },
    {
      "constant": true,
      "inputs": [],
      "name": "rate",
      "outputs": [
        {
          "name": "",
          "type": "uint256"
        }
      ],
      "payable": false,
      "stateMutability": "view",
      "type": "function"
    },
    {
      "constant": true,
      "inputs": [
        {
          "name": "",
          "type": "uint256"
        }
      ],
      "name": "investors",
      "outputs": [
        {
          "name": "",
          "type": "address"
        }
      ],
      "payable": false,
      "stateMutability": "view",
      "type": "function"
    },
    {
      "inputs": [
        {
          "name": "millionth",
          "type": "int256"
        },
        {
          "name": "researcher",
          "type": "address"
        },
        {
          "name": "setRate",
          "type": "uint256"
        }
      ],
      "payable": false,
      "stateMutability": "nonpayable",
      "type": "constructor"
    },
    {
      "constant": false,
      "inputs": [
        {
          "name": "investorAddress",
          "type": "address"
        }
      ],
      "name": "buyPrediction",
      "outputs": [],
      "payable": true,
      "stateMutability": "payable",
      "type": "function"
    },
    {
      "constant": true,
      "inputs": [
        {
          "name": "requester",
          "type": "address"
        }
      ],
      "name": "getPrediction",
      "outputs": [
        {
          "name": "",
          "type": "int256"
        }
      ],
      "payable": false,
      "stateMutability": "view",
      "type": "function"
    }
  ],
  "bytecode": "0x608060405234801561001057600080fd5b506040516060806104a08339810180604052606081101561003057600080fd5b81019080805190602001909291908051906020019092919080519060200190929190505050816000806101000a81548173ffffffffffffffffffffffffffffffffffffffff021916908373ffffffffffffffffffffffffffffffffffffffff16021790555082600281905550806001819055505050506103eb806100b56000396000f3fe60806040526004361061006d576000357c0100000000000000000000000000000000000000000000000000000000900463ffffffff1680631344f9ec146100725780632c4e722e146100c95780633d70dfff146100f45780633feb5f2b14610138578063eacaced7146101b3575b600080fd5b34801561007e57600080fd5b50610087610218565b604051808273ffffffffffffffffffffffffffffffffffffffff1673ffffffffffffffffffffffffffffffffffffffff16815260200191505060405180910390f35b3480156100d557600080fd5b506100de61023d565b6040518082815260200191505060405180910390f35b6101366004803603602081101561010a57600080fd5b81019080803573ffffffffffffffffffffffffffffffffffffffff169060200190929190505050610243565b005b34801561014457600080fd5b506101716004803603602081101561015b57600080fd5b81019080803590602001909291905050506102bd565b604051808273ffffffffffffffffffffffffffffffffffffffff1673ffffffffffffffffffffffffffffffffffffffff16815260200191505060405180910390f35b3480156101bf57600080fd5b50610202600480360360208110156101d657600080fd5b81019080803573ffffffffffffffffffffffffffffffffffffffff1690602001909291905050506102fb565b6040518082815260200191505060405180910390f35b6000809054906101000a900473ffffffffffffffffffffffffffffffffffffffff1681565b60015481565b600154341015151561025457600080fd5b60038190806001815401808255809150509060018203906000526020600020016000909192909190916101000a81548173ffffffffffffffffffffffffffffffffffffffff021916908373ffffffffffffffffffffffffffffffffffffffff1602179055505050565b6003818154811015156102cc57fe5b906000526020600020016000915054906101000a900473ffffffffffffffffffffffffffffffffffffffff1681565b60006103068261031b565b151561031157600080fd5b6002549050919050565b600080600090505b6003805490508110156103b4578273ffffffffffffffffffffffffffffffffffffffff1660038281548110151561035657fe5b9060005260206000200160009054906101000a900473ffffffffffffffffffffffffffffffffffffffff1673ffffffffffffffffffffffffffffffffffffffff1614156103a75760019150506103ba565b8080600101915050610323565b50600090505b91905056fea165627a7a723058209fa4647049d60c07e970a76c8514999a6e86319ba233c4647044907178e1bee40029",
  "source": "pragma solidity >=0.4.22 <0.6.0;\n\ncontract PredictionFactory{\n    address[] public predictions;\n    \n    function createPrediction(int millionth, uint setRate) public{\n        address currentAddress = address(new Prediction(millionth, msg.sender, setRate));\n        predictions.push(currentAddress);\n    }\n    \n    function getDeployedPredictions() public view returns(address[] memory) {\n        return predictions;\n    }\n}\n\ncontract Prediction {\n    address public researcherAddress;\n    uint public rate;\n    int private prediction;\n    address[] public investors;\n    \n    constructor (int millionth, address researcher, uint setRate) public {\n        researcherAddress = researcher;\n        prediction = millionth;\n        rate = setRate;\n    }\n    function buyPrediction(address investorAddress) public payable{\n        require(msg.value >= rate);\n        investors.push(investorAddress);\n    }\n    function getPrediction(address requester) public view returns (int) {\n        require(isInvestor(requester));\n        return prediction;\n    }\n    function isInvestor(address candidate) private view returns (bool) {\n        for (uint i = 0; i < investors.length; i++) {\n            if (investors[i] == candidate) return true;\n        }\n        return false;\n    }\n    \n}\n",
  "sourcePath": "/home/kslotay/dev_mnt/USCBlockathon/frontend/src/contracts/prediction.sol",
  "compiler": {
    "name": "solc",
    "version": "0.5.0+commit.1d4f565a.Emscripten.clang"
  },
  "schemaVersion": "3.0.2",
  "updatedAt": "2019-02-17T17:33:25.392Z",
  "devdoc": {
    "methods": {}
  },
  "userdoc": {
    "methods": {}
  }
}